{
  "contractName": "MockToken",
  "abi": [
    {
      "anonymous": false,
      "inputs": [
        {
          "indexed": false,
          "internalType": "bytes32",
          "name": "requestId",
          "type": "bytes32"
        }
      ],
      "name": "CallbackFailure",
      "type": "event"
    },
    {
      "anonymous": false,
      "inputs": [
        {
          "indexed": false,
          "internalType": "bytes32",
          "name": "requestId",
          "type": "bytes32"
        },
        {
          "indexed": false,
          "internalType": "uint256",
          "name": "value",
          "type": "uint256"
        }
      ],
      "name": "RandomValue",
      "type": "event"
    },
    {
      "inputs": [
        {
          "internalType": "address",
          "name": "",
          "type": "address"
        }
      ],
      "name": "balances",
      "outputs": [
        {
          "internalType": "uint256",
          "name": "",
          "type": "uint256"
        }
      ],
      "stateMutability": "view",
      "type": "function"
    },
    {
      "inputs": [
        {
          "internalType": "uint256",
          "name": "result",
          "type": "uint256"
        }
      ],
      "name": "setRandomResult",
      "outputs": [],
      "stateMutability": "nonpayable",
      "type": "function"
    },
    {
      "inputs": [
        {
          "internalType": "address",
          "name": "_address",
          "type": "address"
        },
        {
          "internalType": "uint256",
          "name": "amount",
          "type": "uint256"
        }
      ],
      "name": "mint",
      "outputs": [],
      "stateMutability": "nonpayable",
      "type": "function"
    },
    {
      "inputs": [
        {
          "internalType": "address",
          "name": "owner",
          "type": "address"
        }
      ],
      "name": "balanceOf",
      "outputs": [
        {
          "internalType": "uint256",
          "name": "balance",
          "type": "uint256"
        }
      ],
      "stateMutability": "view",
      "type": "function"
    },
    {
      "inputs": [
        {
          "internalType": "address",
          "name": "to",
          "type": "address"
        },
        {
          "internalType": "uint256",
          "name": "value",
          "type": "uint256"
        },
        {
          "internalType": "bytes",
          "name": "data",
          "type": "bytes"
        }
      ],
      "name": "transferAndCall",
      "outputs": [
        {
          "internalType": "bool",
          "name": "success",
          "type": "bool"
        }
      ],
      "stateMutability": "nonpayable",
      "type": "function"
    }
  ],
  "bytecode": "0x60806040526002805534801561001457600080fd5b5061098a806100246000396000f3fe608060405234801561001057600080fd5b50600436106100575760003560e01c806327e235e31461005c578063327fdc85146100b45780634000aea0146100e257806340c10f191461019d57806370a08231146101eb575b600080fd5b61009e6004803603602081101561007257600080fd5b81019080803573ffffffffffffffffffffffffffffffffffffffff169060200190929190505050610243565b6040518082815260200191505060405180910390f35b6100e0600480360360208110156100ca57600080fd5b810190808035906020019092919050505061025b565b005b610183600480360360608110156100f857600080fd5b81019080803573ffffffffffffffffffffffffffffffffffffffff169060200190929190803590602001909291908035906020019064010000000081111561013f57600080fd5b82018360208201111561015157600080fd5b8035906020019184600183028401116401000000008311171561017357600080fd5b9091929391929390505050610265565b604051808215151515815260200191505060405180910390f35b6101e9600480360360408110156101b357600080fd5b81019080803573ffffffffffffffffffffffffffffffffffffffff16906020019092919080359060200190929190505050610359565b005b61022d6004803603602081101561020157600080fd5b81019080803573ffffffffffffffffffffffffffffffffffffffff1690602001909291905050506103a9565b6040518082815260200191505060405180910390f35b60006020528060005260406000206000915090505481565b8060028190555050565b6000836000803373ffffffffffffffffffffffffffffffffffffffff1673ffffffffffffffffffffffffffffffffffffffff16815260200190815260200160002060008282540392505081905550836000808773ffffffffffffffffffffffffffffffffffffffff1673ffffffffffffffffffffffffffffffffffffffff1681526020019081526020016000206000828254019250508190555061034d3384848080601f016020809104026020016040519081016040528093929190818152602001838380828437600081840152601f19601f820116905080830192505050505050506103f1565b60019050949350505050565b806000808473ffffffffffffffffffffffffffffffffffffffff1673ffffffffffffffffffffffffffffffffffffffff168152602001908152602001600020600082825401925050819055505050565b60008060008373ffffffffffffffffffffffffffffffffffffffff1673ffffffffffffffffffffffffffffffffffffffff168152602001908152602001600020549050919050565b60008082806020019051604081101561040957600080fd5b81019080805190602001909291908051906020019092919050505091509150610433828286610439565b50505050565b60006001600085815260200190815260200160002060008373ffffffffffffffffffffffffffffffffffffffff1673ffffffffffffffffffffffffffffffffffffffff168152602001908152602001600020549050600061049c85858585610584565b905060006104aa86836105fe565b905061050f600180600089815260200190815260200160002060008773ffffffffffffffffffffffffffffffffffffffff1673ffffffffffffffffffffffffffffffffffffffff1681526020019081526020016000205461063790919063ffffffff16565b6001600088815260200190815260200160002060008673ffffffffffffffffffffffffffffffffffffffff1673ffffffffffffffffffffffffffffffffffffffff16815260200190815260200160002081905550600061056e826106bf565b905061057b82828761070f565b50505050505050565b600084848484604051602001808581526020018481526020018373ffffffffffffffffffffffffffffffffffffffff1673ffffffffffffffffffffffffffffffffffffffff1681526020018281526020019450505050506040516020818303038152906040528051906020012060001c9050949350505050565b60008282604051602001808381526020018281526020019250505060405160208183030381529060405280519060200120905092915050565b6000808284019050838110156106b5576040517f08c379a000000000000000000000000000000000000000000000000000000000815260040180806020018281038252601b8152602001807f536166654d6174683a206164646974696f6e206f766572666c6f77000000000081525060200191505060405180910390fd5b8091505092915050565b60006002805410156106d557600254905061070a565b814260405160200180838152602001828152602001925050506040516020818303038152906040528051906020012060001c90505b919050565b600060606394985ddd60e01b85856040516024018083815260200182815260200192505050604051602081830303815290604052907bffffffffffffffffffffffffffffffffffffffffffffffffffffffff19166020820180517bffffffffffffffffffffffffffffffffffffffffffffffffffffffff838183161783525050505090506000620324b09050805a1015610811576040517f08c379a000000000000000000000000000000000000000000000000000000000815260040180806020018281038252601b8152602001807f6e6f7420656e6f7567682067617320666f7220636f6e73756d6572000000000081525060200191505060405180910390fd5b60008473ffffffffffffffffffffffffffffffffffffffff16836040518082805190602001908083835b6020831061085e578051825260208201915060208101905060208303925061083b565b6001836020036101000a0380198251168184511680821785525050505050509050019150506000604051808303816000865af19150503d80600081146108c0576040519150601f19603f3d011682016040523d82523d6000602084013e6108c5565b606091505b505090508015610913577f48366c25d2e8af75b73f1f1cd1d698320d2780db1752b7f44fbf150c8d0288038787604051808381526020018281526020019250505060405180910390a161094b565b7f0762b4191c5bd8bf0d6e5fd624054ce90293e3e7d8b43fbe5a89cfc6dab7ad1c876040518082815260200191505060405180910390a15b5050505050505056fea2646970667358221220c8e294bbaa67ca42399cc65044fadce542ad889d398de2ed414b4cd1042a346364736f6c63430006060033",
  "immutableReferences": {},
  "source": "pragma solidity ^0.6.6;\nimport \"@chainlink/contracts/src/v0.6/VRFConsumerBase.sol\";\nimport \"@chainlink/contracts/src/v0.6/VRFRequestIDBase.sol\";\nimport \"@chainlink/contracts/src/v0.6/vendor/SafeMathChainlink.sol\";\n\ncontract MockToken is VRFRequestIDBase {\n  \n  using SafeMathChainlink for uint256;\n\n  mapping (address => uint256) public balances;\n\n  mapping(bytes32 /* provingKey */ => mapping(address /* consumer */ => uint256))\n  private nonces;\n\n  // used to set the \"random\" result for testing\n  // 0 = heads = false\n  // 1 = tails = true\n  // >= 2 auto\n  uint testResult = 2;\n\n  event RandomValue(bytes32 requestId, uint256 value);\n  event CallbackFailure(bytes32 requestId);\n\n  function setRandomResult(uint256 result) public {\n    testResult = result;\n  }\n\n  function mint(address _address, uint256 amount) public {\n    balances[_address] += amount;\n  }\n\n  function balanceOf(address owner) external view returns (uint256 balance) {\n    return balances[owner];\n  }\n\n  function transferAndCall(address to, uint256 value, bytes calldata data) external returns (bool success) {\n    balances[msg.sender] -= value;\n    balances[to] += value;\n    _onTokenTransfer(msg.sender, data);\n    return true;\n  }\n\n  /*\n   * modified functions from Chainlink VRFCoordinator to emulate\n   * fulfilling the random call\n  */\n\n  /**\n   * @notice Called by LINK.transferAndCall, on successful LINK transfer\n   *\n   * @dev To invoke this, use the requestRandomness method in VRFConsumerBase.\n   *\n   * @dev The VRFCoordinator will call back to the calling contract when the\n   * @dev oracle responds, on the method fulfillRandomness. See\n   * @dev VRFConsumerBase.fulfilRandomness for its signature. Your consuming\n   * @dev contract should inherit from VRFConsumerBase, and implement\n   * @dev fulfilRandomness.\n   *\n   * @param _sender address: who sent the LINK (must be a contract)\n   * @param _data abi-encoded call to randomnessRequest\n   */\n  function _onTokenTransfer(address _sender, bytes memory _data) internal\n  {\n    (bytes32 keyHash, uint256 seed) = abi.decode(_data, (bytes32, uint256));\n    randomnessRequest(keyHash, seed, _sender);\n  }\n\n  /**\n   * @notice creates the chainlink request for randomness\n   *\n   * @param _keyHash ID of the VRF public key against which to generate output\n   * @param _consumerSeed Input to the VRF, from which randomness is generated\n   * @param _sender Requesting contract; to be called back with VRF output\n   *\n   * @dev _consumerSeed is mixed with key hash, sender address and nonce to\n   * @dev obtain preSeed, which is passed to VRF oracle, which mixes it with the\n   * @dev hash of the block containing this request, to compute the final seed.\n   *\n   * @dev The requestId used to store the request data is constructed from the\n   * @dev preSeed and keyHash.\n   */\n  function randomnessRequest(\n    bytes32 _keyHash,\n    uint256 _consumerSeed,\n    address _sender\n  )\n    internal\n  {\n    uint256 nonce = nonces[_keyHash][_sender];\n    uint256 preSeed = makeVRFInputSeed(_keyHash, _consumerSeed, _sender, nonce);\n    bytes32 requestId = makeRequestId(_keyHash, preSeed);\n    \n    // Cryptographically guaranteed by preSeed including an increasing nonce\n    // assert(callbacks[requestId].callbackContract == address(0));\n    // callbacks[requestId].callbackContract = _sender;\n    // assert(_feePaid < 1e27); // Total LINK fits in uint96\n    // callbacks[requestId].randomnessFee = uint96(_feePaid);\n    // callbacks[requestId].seedAndBlockNum = keccak256(abi.encodePacked(\n    //   preSeed, block.number));\n    // emit RandomnessRequest(_keyHash, preSeed, serviceAgreements[_keyHash].jobID,\n    //   _sender, _feePaid, requestId);\n\n    nonces[_keyHash][_sender] = nonces[_keyHash][_sender].add(1);\n    uint256 randomness = getRandom(requestId);\n    \n    callBackWithRandomness(requestId, randomness, _sender);\n  }\n\n  function getRandom(bytes32 requestId) internal view returns (uint256) {\n    if (testResult < 2) {\n      // return the test value\n      return testResult;\n    }\n\n    // generate a random-ish value\n    return  uint256(keccak256(abi.encodePacked(requestId, block.timestamp)));\n  }\n\n  function callBackWithRandomness(bytes32 requestId, uint256 randomness,\n    address consumerContract) internal {\n    // Dummy variable; allows access to method selector in next line. See\n    // https://github.com/ethereum/solidity/issues/3506#issuecomment-553727797\n    VRFConsumerBase v;\n    bytes memory resp = abi.encodeWithSelector(\n      v.rawFulfillRandomness.selector, requestId, randomness);\n    // The bound b here comes from https://eips.ethereum.org/EIPS/eip-150. The\n    // actual gas available to the consuming contract will be b-floor(b/64).\n    // This is chosen to leave the consuming contract ~200k gas, after the cost\n    // of the call itself.\n    uint256 b = 206000;\n    require(gasleft() >= b, \"not enough gas for consumer\");\n    // A low-level call is necessary, here, because we don't want the consuming\n    // contract to be able to revert this execution, and thus deny the oracle\n    // payment for a valid randomness response. This also necessitates the above\n    // check on the gasleft, as otherwise there would be no indication if the\n    // callback method ran out of gas.\n    //\n    // solhint-disable-next-line avoid-low-level-calls\n    (bool success,) = consumerContract.call(resp);\n    // Avoid unused-local-variable warning. (success is only present to prevent\n    // a warning that the return value of consumerContract.call is unused.)\n    if (success) {\n      emit RandomValue(requestId, randomness);\n    } else {\n      emit CallbackFailure(requestId);\n    }\n  }\n}\n",
  "sourcePath": "C:\\Users\\Jeremy\\Documents\\Code\\IoTAcademy\\eth201\\CryptoCoinFlip\\contracts\\test\\MockToken.sol",
  "compiler": {
    "name": "solc",
    "version": "0.6.6+commit.6c089d02.Emscripten.clang"
  },
  "schemaVersion": "3.2.0",
  "updatedAt": "2021-01-01T19:31:22.546Z",
  "devdoc": {
    "methods": {}
  },
  "userdoc": {
    "methods": {}
  }
}