{
  "contractName": "PlaceCoinFlipBet",
  "abi": [
    {
      "inputs": [
        {
          "internalType": "address",
          "name": "vrfCoordinatorAddress",
          "type": "address"
        },
        {
          "internalType": "address",
          "name": "linkTokenAddress",
          "type": "address"
        }
      ],
      "stateMutability": "nonpayable",
      "type": "constructor"
    },
    {
      "anonymous": false,
      "inputs": [
        {
          "indexed": true,
          "internalType": "bytes32",
          "name": "id",
          "type": "bytes32"
        },
        {
          "indexed": true,
          "internalType": "address",
          "name": "player",
          "type": "address"
        },
        {
          "indexed": false,
          "internalType": "uint256",
          "name": "amount",
          "type": "uint256"
        },
        {
          "indexed": false,
          "internalType": "bool",
          "name": "betOn",
          "type": "bool"
        }
      ],
      "name": "BetPlaced",
      "type": "event"
    },
    {
      "anonymous": false,
      "inputs": [
        {
          "indexed": true,
          "internalType": "bytes32",
          "name": "id",
          "type": "bytes32"
        },
        {
          "indexed": true,
          "internalType": "address",
          "name": "player",
          "type": "address"
        },
        {
          "indexed": false,
          "internalType": "bool",
          "name": "flipResult",
          "type": "bool"
        },
        {
          "indexed": false,
          "internalType": "uint256",
          "name": "payout",
          "type": "uint256"
        }
      ],
      "name": "BetResult",
      "type": "event"
    },
    {
      "inputs": [
        {
          "internalType": "bytes32",
          "name": "",
          "type": "bytes32"
        }
      ],
      "name": "nonces",
      "outputs": [
        {
          "internalType": "uint256",
          "name": "",
          "type": "uint256"
        }
      ],
      "stateMutability": "view",
      "type": "function"
    },
    {
      "inputs": [],
      "name": "owner",
      "outputs": [
        {
          "internalType": "address payable",
          "name": "",
          "type": "address"
        }
      ],
      "stateMutability": "view",
      "type": "function"
    },
    {
      "inputs": [
        {
          "internalType": "bytes32",
          "name": "requestId",
          "type": "bytes32"
        },
        {
          "internalType": "uint256",
          "name": "randomness",
          "type": "uint256"
        }
      ],
      "name": "rawFulfillRandomness",
      "outputs": [],
      "stateMutability": "nonpayable",
      "type": "function"
    },
    {
      "stateMutability": "payable",
      "type": "receive"
    },
    {
      "inputs": [],
      "name": "getMyBalance",
      "outputs": [
        {
          "internalType": "uint256",
          "name": "",
          "type": "uint256"
        }
      ],
      "stateMutability": "view",
      "type": "function"
    },
    {
      "inputs": [
        {
          "internalType": "bytes32",
          "name": "id",
          "type": "bytes32"
        }
      ],
      "name": "getBet",
      "outputs": [
        {
          "internalType": "address",
          "name": "player",
          "type": "address"
        },
        {
          "internalType": "bool",
          "name": "betOn",
          "type": "bool"
        },
        {
          "internalType": "uint256",
          "name": "amount",
          "type": "uint256"
        }
      ],
      "stateMutability": "view",
      "type": "function"
    },
    {
      "inputs": [
        {
          "internalType": "bool",
          "name": "betOn",
          "type": "bool"
        },
        {
          "internalType": "uint256",
          "name": "amount",
          "type": "uint256"
        }
      ],
      "name": "placeBet",
      "outputs": [],
      "stateMutability": "nonpayable",
      "type": "function"
    },
    {
      "inputs": [],
      "name": "minBet",
      "outputs": [
        {
          "internalType": "uint256",
          "name": "",
          "type": "uint256"
        }
      ],
      "stateMutability": "pure",
      "type": "function"
    },
    {
      "inputs": [],
      "name": "maxBet",
      "outputs": [
        {
          "internalType": "uint256",
          "name": "",
          "type": "uint256"
        }
      ],
      "stateMutability": "view",
      "type": "function"
    },
    {
      "inputs": [
        {
          "internalType": "uint256",
          "name": "priceInWei",
          "type": "uint256"
        }
      ],
      "name": "setLinkPrice",
      "outputs": [],
      "stateMutability": "nonpayable",
      "type": "function"
    },
    {
      "inputs": [],
      "name": "getOracleCost",
      "outputs": [
        {
          "internalType": "uint256",
          "name": "",
          "type": "uint256"
        }
      ],
      "stateMutability": "view",
      "type": "function"
    },
    {
      "inputs": [],
      "name": "flipCoin",
      "outputs": [
        {
          "internalType": "bytes32",
          "name": "",
          "type": "bytes32"
        }
      ],
      "stateMutability": "nonpayable",
      "type": "function"
    },
    {
      "inputs": [],
      "name": "addFunds",
      "outputs": [],
      "stateMutability": "payable",
      "type": "function"
    },
    {
      "inputs": [
        {
          "internalType": "uint256",
          "name": "amount",
          "type": "uint256"
        }
      ],
      "name": "withdrawFunds",
      "outputs": [],
      "stateMutability": "nonpayable",
      "type": "function"
    },
    {
      "inputs": [],
      "name": "destroy",
      "outputs": [],
      "stateMutability": "nonpayable",
      "type": "function"
    }
  ],
  "bytecode": "0x60c060405234801561001057600080fd5b50604051611bef380380611bef8339818101604052604081101561003357600080fd5b81019080805190602001909291908051906020019092919050505081818173ffffffffffffffffffffffffffffffffffffffff1660a08173ffffffffffffffffffffffffffffffffffffffff1660601b815250508073ffffffffffffffffffffffffffffffffffffffff1660808173ffffffffffffffffffffffffffffffffffffffff1660601b81525050505033600160006101000a81548173ffffffffffffffffffffffffffffffffffffffff021916908373ffffffffffffffffffffffffffffffffffffffff1602179055507f6c3699283bda56ad74f6b855546325b68d482e983852a7a82979cc4807b641f460001b60028190555067016345785d8a000060038190555066470de4df820000600481905550505060805160601c60a05160601c611a7261017d600039806109ff52806111de525080610cd252806111a25250611a726000f3fe6080604052600436106100e15760003560e01c806394985ddd1161007f578063a26759cb11610059578063a26759cb1461043c578063eea13ed814610446578063f7f74b2214610481578063fa63c770146104c8576101c1565b806394985ddd1461037d5780639619367d146103c25780639e317f12146103ed576101c1565b80634c738909116100bb5780634c738909146102b9578063799ae223146102e457806383197ef01461030f5780638da5cb5b14610326576101c1565b8063155dd5ee146101c65780632e5b21681461020157806337e8c09e1461022c576101c1565b366101c15761015a3460056000600160009054906101000a900473ffffffffffffffffffffffffffffffffffffffff1673ffffffffffffffffffffffffffffffffffffffff1673ffffffffffffffffffffffffffffffffffffffff168152602001908152602001600020546104f390919063ffffffff16565b60056000600160009054906101000a900473ffffffffffffffffffffffffffffffffffffffff1673ffffffffffffffffffffffffffffffffffffffff1673ffffffffffffffffffffffffffffffffffffffff16815260200190815260200160002081905550005b600080fd5b3480156101d257600080fd5b506101ff600480360360208110156101e957600080fd5b810190808035906020019092919050505061057b565b005b34801561020d57600080fd5b50610216610785565b6040518082815260200191505060405180910390f35b34801561023857600080fd5b506102656004803603602081101561024f57600080fd5b81019080803590602001909291905050506107f8565b604051808473ffffffffffffffffffffffffffffffffffffffff1673ffffffffffffffffffffffffffffffffffffffff16815260200183151515158152602001828152602001935050505060405180910390f35b3480156102c557600080fd5b506102ce61087c565b6040518082815260200191505060405180910390f35b3480156102f057600080fd5b506102f96108c3565b6040518082815260200191505060405180910390f35b34801561031b57600080fd5b506103246108d9565b005b34801561033257600080fd5b5061033b6109d7565b604051808273ffffffffffffffffffffffffffffffffffffffff1673ffffffffffffffffffffffffffffffffffffffff16815260200191505060405180910390f35b34801561038957600080fd5b506103c0600480360360408110156103a057600080fd5b8101908080359060200190929190803590602001909291905050506109fd565b005b3480156103ce57600080fd5b506103d7610acc565b6040518082815260200191505060405180910390f35b3480156103f957600080fd5b506104266004803603602081101561041057600080fd5b8101908080359060200190929190505050610adb565b6040518082815260200191505060405180910390f35b610444610af3565b005b34801561045257600080fd5b5061047f6004803603602081101561046957600080fd5b8101908080359060200190929190505050610b8a565b005b34801561048d57600080fd5b506104c6600480360360408110156104a457600080fd5b8101908080351515906020019092919080359060200190929190505050610ccd565b005b3480156104d457600080fd5b506104dd6110f6565b6040518082815260200191505060405180910390f35b600080828401905083811015610571576040517f08c379a000000000000000000000000000000000000000000000000000000000815260040180806020018281038252601b8152602001807f536166654d6174683a206164646974696f6e206f766572666c6f77000000000081525060200191505060405180910390fd5b8091505092915050565b478111156105f1576040517f08c379a00000000000000000000000000000000000000000000000000000000081526004018080602001828103825260188152602001807f6578636565647320636f6e74726163742062616c616e6365000000000000000081525060200191505060405180910390fd5b600560003373ffffffffffffffffffffffffffffffffffffffff1673ffffffffffffffffffffffffffffffffffffffff168152602001908152602001600020548111156106a6576040517f08c379a00000000000000000000000000000000000000000000000000000000081526004018080602001828103825260168152602001807f6578636565647320706c617965722062616c616e63650000000000000000000081525060200191505060405180910390fd5b6106f881600560003373ffffffffffffffffffffffffffffffffffffffff1673ffffffffffffffffffffffffffffffffffffffff1681526020019081526020016000205461111590919063ffffffff16565b600560003373ffffffffffffffffffffffffffffffffffffffff1673ffffffffffffffffffffffffffffffffffffffff168152602001908152602001600020819055503373ffffffffffffffffffffffffffffffffffffffff166108fc829081150290604051600060405180830381858888f19350505050158015610781573d6000803e3d6000fd5b5050565b6000606460056000600160009054906101000a900473ffffffffffffffffffffffffffffffffffffffff1673ffffffffffffffffffffffffffffffffffffffff1673ffffffffffffffffffffffffffffffffffffffff16815260200190815260200160002054816107f257fe5b04905090565b60008060006006600085815260200190815260200160002060000160009054906101000a900473ffffffffffffffffffffffffffffffffffffffff166006600086815260200190815260200160002060000160149054906101000a900460ff1660066000878152602001908152602001600020600101549250925092509193909250565b6000600560003373ffffffffffffffffffffffffffffffffffffffff1673ffffffffffffffffffffffffffffffffffffffff16815260200190815260200160002054905090565b60006108d46002546003544261119e565b905090565b600160009054906101000a900473ffffffffffffffffffffffffffffffffffffffff1673ffffffffffffffffffffffffffffffffffffffff163373ffffffffffffffffffffffffffffffffffffffff161461099c576040517f08c379a00000000000000000000000000000000000000000000000000000000081526004018080602001828103825260148152602001807f53656e646572206d757374206265206f776e657200000000000000000000000081525060200191505060405180910390fd5b600160009054906101000a900473ffffffffffffffffffffffffffffffffffffffff1673ffffffffffffffffffffffffffffffffffffffff16ff5b600160009054906101000a900473ffffffffffffffffffffffffffffffffffffffff1681565b7f000000000000000000000000000000000000000000000000000000000000000073ffffffffffffffffffffffffffffffffffffffff163373ffffffffffffffffffffffffffffffffffffffff1614610abe576040517f08c379a000000000000000000000000000000000000000000000000000000000815260040180806020018281038252601f8152602001807f4f6e6c7920565246436f6f7264696e61746f722063616e2066756c66696c6c0081525060200191505060405180910390fd5b610ac882826113a9565b5050565b600066038d7ea4c68000905090565b60006020528060005260406000206000915090505481565b610b4534600560003373ffffffffffffffffffffffffffffffffffffffff1673ffffffffffffffffffffffffffffffffffffffff168152602001908152602001600020546104f390919063ffffffff16565b600560003373ffffffffffffffffffffffffffffffffffffffff1673ffffffffffffffffffffffffffffffffffffffff16815260200190815260200160002081905550565b600160009054906101000a900473ffffffffffffffffffffffffffffffffffffffff1673ffffffffffffffffffffffffffffffffffffffff163373ffffffffffffffffffffffffffffffffffffffff1614610c4d576040517f08c379a00000000000000000000000000000000000000000000000000000000081526004018080602001828103825260148152602001807f53656e646572206d757374206265206f776e657200000000000000000000000081525060200191505060405180910390fd5b60008111610cc3576040517f08c379a00000000000000000000000000000000000000000000000000000000081526004018080602001828103825260198152602001807f6d7573742062652067726561746572207468616e207a65726f0000000000000081525060200191505060405180910390fd5b8060048190555050565b6003547f000000000000000000000000000000000000000000000000000000000000000073ffffffffffffffffffffffffffffffffffffffff166370a08231306040518263ffffffff1660e01b8152600401808273ffffffffffffffffffffffffffffffffffffffff1673ffffffffffffffffffffffffffffffffffffffff16815260200191505060206040518083038186803b158015610d6d57600080fd5b505afa158015610d81573d6000803e3d6000fd5b505050506040513d6020811015610d9757600080fd5b81019080805190602001909291905050501015610dff576040517f08c379a000000000000000000000000000000000000000000000000000000000815260040180806020018281038252602b8152602001806119f1602b913960400191505060405180910390fd5b610e07610785565b811115610e7c576040517f08c379a000000000000000000000000000000000000000000000000000000000815260040180806020018281038252600d8152602001807f6265742061626f7665206d61780000000000000000000000000000000000000081525060200191505060405180910390fd5b610e96610e876110f6565b826104f390919063ffffffff16565b600560003373ffffffffffffffffffffffffffffffffffffffff1673ffffffffffffffffffffffffffffffffffffffff168152602001908152602001600020541015610f4a576040517f08c379a00000000000000000000000000000000000000000000000000000000081526004018080602001828103825260128152602001807f696e73756666696369656e742066756e6473000000000000000000000000000081525060200191505060405180910390fd5b610f52610acc565b811015610fc7576040517f08c379a000000000000000000000000000000000000000000000000000000000815260040180806020018281038252600d8152602001807f6265742062656c6f77206d696e0000000000000000000000000000000000000081525060200191505060405180910390fd5b6000610fd16114d2565b905060405180606001604052803373ffffffffffffffffffffffffffffffffffffffff1681526020018415158152602001838152506006600083815260200190815260200160002060008201518160000160006101000a81548173ffffffffffffffffffffffffffffffffffffffff021916908373ffffffffffffffffffffffffffffffffffffffff16021790555060208201518160000160146101000a81548160ff021916908315150217905550604082015181600101559050503373ffffffffffffffffffffffffffffffffffffffff16817fd16174e715659dbd1a7c4b7325dc4def5852b62256790341072d1bd59758849c848660405180838152602001821515151581526020019250505060405180910390a36110f06108c3565b50505050565b6000678ac7230489e80000600454600354028161110f57fe5b04905090565b60008282111561118d576040517f08c379a000000000000000000000000000000000000000000000000000000000815260040180806020018281038252601e8152602001807f536166654d6174683a207375627472616374696f6e206f766572666c6f77000081525060200191505060405180910390fd5b600082840390508091505092915050565b60007f000000000000000000000000000000000000000000000000000000000000000073ffffffffffffffffffffffffffffffffffffffff16634000aea07f000000000000000000000000000000000000000000000000000000000000000085878660405160200180838152602001828152602001925050506040516020818303038152906040526040518463ffffffff1660e01b8152600401808473ffffffffffffffffffffffffffffffffffffffff1673ffffffffffffffffffffffffffffffffffffffff16815260200183815260200180602001828103825283818151815260200191508051906020019080838360005b838110156112ad578082015181840152602081019050611292565b50505050905090810190601f1680156112da5780820380516001836020036101000a031916815260200191505b50945050505050602060405180830381600087803b1580156112fb57600080fd5b505af115801561130f573d6000803e3d6000fd5b505050506040513d602081101561132557600080fd5b81019080805190602001909291905050505060006113578584306000808a815260200190815260200160002054611511565b905061137f6001600080888152602001908152602001600020546104f390919063ffffffff16565b6000808781526020019081526020016000208190555061139f858261158b565b9150509392505050565b60006001600283816113b757fe5b061490506113c36119b7565b600660008581526020019081526020016000206040518060600160405290816000820160009054906101000a900473ffffffffffffffffffffffffffffffffffffffff1673ffffffffffffffffffffffffffffffffffffffff1673ffffffffffffffffffffffffffffffffffffffff1681526020016000820160149054906101000a900460ff161515151581526020016001820154815250509050600061146a82846115c4565b9050816000015173ffffffffffffffffffffffffffffffffffffffff16857fccd0c14a4a1c461f9d627ba5bbdcd49c0074764e619313ee2f7e59553d15cb2a858460405180831515151581526020018281526020019250505060405180910390a35050505050565b600080600080600254815260200190815260200160002054905060006114fc600254423085611511565b905061150a6002548261158b565b9250505090565b600084848484604051602001808581526020018481526020018373ffffffffffffffffffffffffffffffffffffffff1673ffffffffffffffffffffffffffffffffffffffff1681526020018281526020019450505050506040516020818303038152906040528051906020012060001c9050949350505050565b60008282604051602001808381526020018281526020019250505060405160208183030381529060405280519060200120905092915050565b60008115158360200151151514611775576116486115e06110f6565b61163a856040015160056000886000015173ffffffffffffffffffffffffffffffffffffffff1673ffffffffffffffffffffffffffffffffffffffff1681526020019081526020016000205461111590919063ffffffff16565b61111590919063ffffffff16565b60056000856000015173ffffffffffffffffffffffffffffffffffffffff1673ffffffffffffffffffffffffffffffffffffffff16815260200190815260200160002081905550611707836040015160056000600160009054906101000a900473ffffffffffffffffffffffffffffffffffffffff1673ffffffffffffffffffffffffffffffffffffffff1673ffffffffffffffffffffffffffffffffffffffff168152602001908152602001600020546104f390919063ffffffff16565b60056000600160009054906101000a900473ffffffffffffffffffffffffffffffffffffffff1673ffffffffffffffffffffffffffffffffffffffff1673ffffffffffffffffffffffffffffffffffffffff168152602001908152602001600020819055506000905061192b565b600061178f6002856040015161193190919063ffffffff16565b905060006117ad61179e6110f6565b8361111590919063ffffffff16565b90506118238260056000600160009054906101000a900473ffffffffffffffffffffffffffffffffffffffff1673ffffffffffffffffffffffffffffffffffffffff1673ffffffffffffffffffffffffffffffffffffffff1681526020019081526020016000205461111590919063ffffffff16565b60056000600160009054906101000a900473ffffffffffffffffffffffffffffffffffffffff1673ffffffffffffffffffffffffffffffffffffffff1673ffffffffffffffffffffffffffffffffffffffff168152602001908152602001600020819055506118de8160056000886000015173ffffffffffffffffffffffffffffffffffffffff1673ffffffffffffffffffffffffffffffffffffffff168152602001908152602001600020546104f390919063ffffffff16565b60056000876000015173ffffffffffffffffffffffffffffffffffffffff1673ffffffffffffffffffffffffffffffffffffffff1681526020019081526020016000208190555080925050505b92915050565b60008083141561194457600090506119b1565b600082840290508284828161195557fe5b04146119ac576040517f08c379a0000000000000000000000000000000000000000000000000000000008152600401808060200182810382526021815260200180611a1c6021913960400191505060405180910390fd5b809150505b92915050565b6040518060600160405280600073ffffffffffffffffffffffffffffffffffffffff16815260200160001515815260200160008152509056fe4e6f7420656e6f756768204c494e4b202d2066696c6c20636f6e7472616374207769746820666175636574536166654d6174683a206d756c7469706c69636174696f6e206f766572666c6f77a2646970667358221220bcdd19bb5abed169c72c5ceb88bac2787fda780ed7405e25c33d1622f40da44b64736f6c63430006060033",
  "immutableReferences": {
    "1101": [
      {
        "length": 32,
        "start": 3282
      },
      {
        "length": 32,
        "start": 4514
      }
    ],
    "1103": [
      {
        "length": 32,
        "start": 2559
      },
      {
        "length": 32,
        "start": 4574
      }
    ]
  },
  "source": "pragma solidity ^0.6.6;\r\n\r\nimport \"@chainlink/contracts/src/v0.6/VRFConsumerBase.sol\";\r\nimport \"@chainlink/contracts/src/v0.6/vendor/SafeMathChainlink.sol\";\r\nimport \"./Ownable.sol\";\r\n\r\ncontract PlaceCoinFlipBet is VRFConsumerBase, Ownable {\r\n    using SafeMathChainlink for uint256;\r\n\r\n    struct Bet {\r\n        address player;\r\n        bool betOn;\r\n        uint256 amount;\r\n    }\r\n\r\n    // oracle properties\r\n    bytes32 internal keyHash;\r\n    uint256 internal fee;\r\n    uint256 internal linkPriceInWei;\r\n\r\n    // betting\r\n    mapping(address => uint256) balances;\r\n    mapping(bytes32 => Bet) bets; // queryId => Bet\r\n\r\n    event BetPlaced(\r\n        bytes32 indexed id,\r\n        address indexed player,\r\n        uint256 amount,\r\n        bool betOn\r\n    );\r\n    event BetResult(\r\n        bytes32 indexed id,\r\n        address indexed player,\r\n        bool flipResult,\r\n        uint256 payout\r\n    );\r\n\r\n    constructor(address vrfCoordinatorAddress, address linkTokenAddress)\r\n        public\r\n        VRFConsumerBase(\r\n            vrfCoordinatorAddress,\r\n            linkTokenAddress\r\n        )\r\n    {\r\n        keyHash = 0x6c3699283bda56ad74f6b855546325b68d482e983852a7a82979cc4807b641f4;\r\n        fee = 0.1 * 10**18; // 0.1 LINK\r\n        linkPriceInWei = 0.02 ether; // 0.02 ETH/LINK\r\n    }\r\n\r\n    function getMyBalance() public view returns (uint256) {\r\n        return balances[msg.sender];\r\n    }\r\n\r\n    function getBet(bytes32 id)\r\n        public\r\n        view\r\n        returns (\r\n            address player,\r\n            bool betOn,\r\n            uint256 amount\r\n        )\r\n    {\r\n        return (bets[id].player, bets[id].betOn, bets[id].amount);\r\n    }\r\n\r\n    function placeBet(bool betOn, uint256 amount) public {\r\n        require(\r\n            LINK.balanceOf(address(this)) >= fee,\r\n            \"Not enough LINK - fill contract with faucet\"\r\n        );\r\n        require(amount <= maxBet(), \"bet above max\");\r\n        require(\r\n            balances[msg.sender] >= amount.add(getOracleCost()),\r\n            \"insufficient funds\"\r\n        );\r\n        require(amount >= minBet(), \"bet below min\");\r\n\r\n        bytes32 queryId = _getRequestId();\r\n        bets[queryId] = Bet(msg.sender, betOn, amount);\r\n        emit BetPlaced(queryId, msg.sender, amount, betOn);\r\n\r\n        flipCoin();\r\n    }\r\n\r\n    function _getRequestId() internal view returns (bytes32) {\r\n        uint256 nonce = nonces[keyHash];\r\n        uint256 preSeed = makeVRFInputSeed(\r\n            keyHash,\r\n            block.timestamp,\r\n            address(this),\r\n            nonce\r\n        );\r\n        return makeRequestId(keyHash, preSeed);\r\n    }\r\n\r\n    function minBet() public pure returns (uint256) {\r\n        return 0.001 ether;\r\n    }\r\n\r\n    function maxBet() public view returns (uint256) {\r\n        return balances[owner] / 100;\r\n    }\r\n\r\n    /**\r\n     * Callback function used by VRF Coordinator\r\n     */\r\n    function fulfillRandomness(bytes32 requestId, uint256 randomness)\r\n        internal\r\n        override\r\n    {\r\n        // 0 = heads = false\r\n        // 1 = tails = true\r\n        bool result = (randomness % 2) == 1;\r\n        Bet memory bet = bets[requestId];\r\n        uint256 payoutAmt = payout(bet, result);\r\n        emit BetResult(requestId, bet.player, result, payoutAmt);\r\n    }\r\n\r\n    function payout(Bet memory bet, bool flipResult) private returns (uint256) {\r\n        if (bet.betOn != flipResult) {\r\n            balances[bet.player] = balances[bet.player].sub(bet.amount).sub(\r\n                getOracleCost()\r\n            );\r\n            balances[owner] = balances[owner].add(bet.amount);\r\n            return 0;\r\n        }\r\n\r\n        uint256 grossWinnings = bet.amount.mul(2);\r\n        uint256 netWinnings = grossWinnings.sub(getOracleCost());\r\n        balances[owner] = balances[owner].sub(grossWinnings);\r\n        balances[bet.player] = balances[bet.player].add(netWinnings);\r\n\r\n        return netWinnings;\r\n    }\r\n\r\n    function setLinkPrice(uint256 priceInWei) public onlyOwner {\r\n        require(priceInWei > 0, \"must be greater than zero\");\r\n        linkPriceInWei = priceInWei;\r\n    }\r\n\r\n    function getOracleCost() public view returns (uint256) {\r\n        return fee * linkPriceInWei / 10e18;\r\n    }\r\n\r\n    function flipCoin() public returns (bytes32) {\r\n        return requestRandomness(keyHash, fee, block.timestamp);\r\n    }\r\n\r\n    function addFunds() external payable {\r\n        balances[msg.sender] = balances[msg.sender].add(msg.value);\r\n    }\r\n\r\n    function withdrawFunds(uint256 amount) external {\r\n        require(amount <= address(this).balance, \"exceeds contract balance\");\r\n        require(amount <= balances[msg.sender], \"exceeds player balance\");\r\n        balances[msg.sender] = balances[msg.sender].sub(amount);\r\n        msg.sender.transfer(amount);\r\n    }\r\n\r\n    receive() external payable {\r\n        balances[owner] = balances[owner].add(msg.value);\r\n    }\r\n\r\n    function destroy() external onlyOwner {\r\n        selfdestruct(owner);\r\n    }\r\n}\r\n",
  "sourcePath": "C:\\Users\\Jeremy\\Documents\\Code\\IoTAcademy\\eth201\\CryptoCoinFlip\\contracts\\PlaceCoinFlipBet.sol",
  "compiler": {
    "name": "solc",
    "version": "0.6.6+commit.6c089d02.Emscripten.clang"
  },
  "schemaVersion": "3.2.0",
  "updatedAt": "2021-01-01T19:31:22.516Z",
  "devdoc": {
    "methods": {}
  },
  "userdoc": {
    "methods": {}
  }
}